:100C1E007573657249443A0070617373776F7264CD
:100C2E003A0041757468656E746963617465640039
:100C3E00312E556E6C6F636B20446F6F7200322EC7
:100C4E006C6F636B20446F6F7200416363657373E7
:100C5E002044656E69646500496E76616C69642036
:100C6E0055736572494400373839253435362A3183
:070C7E0032332D43303D2B02
:100D400005123032323700051830303730000508D0
:0C0D50003030303000050D303030300005
:100800007F38120D727F0F120D727F06120D727FEC
:1008100001120D72120D927F80120D727BFF7A0C05
:10082000791E120C857F87120D72E4F51DF51E12DC
:100830000ABCAE1E74082EF8A60774082EF8E6FF50
:10084000120D82051EE51E7002051D6404451D7013
:10085000DEF51DF51EE50865126003020980E50955
:1008600065136003020980E50A65146003020980CC
:10087000E50B651560030209807FC0120D727BFFD6
:100880007A0C7926120C857FC9120D72120ABC747B
:1008900008251EF8A607051EE51E7002051D7F2A05
:1008A000120D82E51E6404451D70E1E508651860BF
:1008B00003020964E50965196003020964E50A6534
:1008C0001A6003020964E50B651B600302096412E8
:1008D0000D927BFF7A0C7930120C857FD07E071247
:1008E0000CB8120D927F80120D727BFF7A0C793E4C
:1008F000120C857FC0120D727BFF7A0C794C120CA2
:1009000085120ABCEF64314E600CEF64324E600613
:10091000EF64434E70EBEE7049EF24CE602524EF78
:10092000603E2412703C120CFC120ABCEF64324E82
:100930007003120D1E120ABCEF64434E70E81208D9
:100940000080E3120D1E120ABCEF64314E700312D8
:100950000CFC120ABCEF64434E70E812080080E3FE
:1009600080188016120D927BFF7A0C7958120C8534
:100970007FE87E03120CB8120D9212080002081CC8
:10098000120D927BFF7A0C7966120C857FE87E034C
:09099000120CB812080002081C48
:100D72008F30120D5D853090C2B0120CB0C2B2221B
:100D82008F24120D5D852490D2B0120CB0C2B22213
:100D5D00D297C2B0D2B130970BC2B27F017E0012D2
:050D6D000CB8D2B22217
:060C85008B1F8A2089216B
:100C8B00E4F522F523AB1FAA20A921852382852217
:100C9B0083120A8FFF600D120D820523E52370E589
:040CAB00052280E1BD
:010CAF002222
:080CB000C2B1D2B27F0A7E003E
:100CB800E4FDFCC3ED9FEC9E5015E4FBFA0BBB0072
:0F0CC800010AEB64644A70F50DBD00010C80E475
:010CD70022FA
:050D92007F01020D725B
:100ABC00781F7C007D007BFF7A0C79757E007F109F
:100ACC00120A6975A0FFE4F580C2B0C2B1C2B2C20D
:100ADC0097F5907F38120D727F0E120D727F0612F1
:100AEC000D72E4F580AFA053070FBF0FF57F197E91
:100AFC0000120CB8AFA053070FEF640F60EF7F1913
:100B0C00120CB8AFA053070FEF640F60E07580FEB6
:100B1C00AFA053070FEF640F6005E4F52F80347519
:100B2C0080FDAFA053070FEF640F6005752F018098
:100B3C00227580FBAFA053070FEF640F6005752F74
:100B4C000280107580F7AFA053070FEF640F60BDE4
:100B5C00752F03BF0E0AE52F25E025E0241F80200A
:100B6C00BF0D0AE52F25E025E024208013E52FBFDB
:100B7C000B0825E025E02421800625E025E0242231
:050B8C00F8E6FF7E0009
:010B91002241
:100CD800E4FDFCC3ED9FEC9E5019758920758DD1FC
:100CE800758BFFD28E308FFDC28FC28E0DBD000175
:030CF8000C80E08D
:010CFB0022D6
:100CFC00C2B3E4FBFAD2B37F0A7E00120CD8C2B3A3
:100D0C007F7C0E120CD80BBB00010AEB64014A70FD
:010D1C00E4F2
:010D1D0022B3
:100D1E00C2B3E4FBFAD2B37F3C7E00120CD8C2B34E
:100D2E007F540E120CD80BBB00010AEB64014A7003
:010D3E00E4D0
:010D3F002291
:03000000020B925E
:0C0B9200787FE4F6D8FD758130020BD9A5
:10099900E709F608DFFA8046E709F208DFFA803E40
:1009A90088828C83E709F0A3DFFA8032E309F6082D
:1009B900DFFA8078E309F208DFFA807088828C8395
:1009C900E309F0A3DFFA806489828A83E0A3F60849
:1009D900DFFA805889828A83E0A3F208DFFA804C23
:1009E90080D280FA80C680D4806980F280338010FA
:1009F90080A680EA809A80A880DA80E280CA803363
:100A090089828A83ECFAE493A3C8C582C8CCC583DA
:100A1900CCF0A3C8C582C8CCC583CCDFE9DEE780AA
:100A29000D89828A83E493A3F608DFF9ECFAA9F029
:100A3900EDFB2289828A83ECFAE0A3C8C582C8CC7F
:100A4900C583CCF0A3C8C582C8CCC583CCDFEADE98
:100A5900E880DB89828A83E493A3F208DFF980CCFA
:100A690088F0EF60010E4E60C388F0ED2402B404F3
:100A79000050B9F582EB2402B4040050AF2323459A
:060A890082239009E973CD
:100A8F00BB010CE58229F582E5833AF583E022501C
:100A9F0006E92582F8E622BBFE06E92582F8E22266
:0D0AAF00E58229F582E5833AF583E4932280
:100B9E00020800E493A3F8E493A34003F68001F265
:100BAE0008DFF48029E493A3F85407240CC8C33358
:100BBE00C4540F4420C8834004F456800146F6DF27
:100BCE00E4800B0102040810204080900D40E47E6A
:100BDE00019360BCA3FF543F30E509541FFEE4931C
:100BEE00A360010ECF54C025E060A840B8E493A3E3
:100BFE00FAE493A3F8E493A3C8C582C8CAC583CA0E
:100C0E00F0A3C8C582C8CAC583CADFE9DEE780BEC5
:010D5C000096
:00000001FF
